:100000000C9453000C9470000C9470000C947000CD
:100010000C9470000C9470000C9470000C947000A0
:100020000C9470000C9470000C9470000C94700090
:100030000C9470000C9470000C9470000C94700080
:100040000C9472000C9470000C9470000C9470006E
:100050000C9470000C9470000C9470000C94700060
:100060000C9470000C947000000000002500280023
:100070002B0000000000240027002A0004040404D0
:100080000404040402020202020203030303030342
:10009000010204081020408001020408102001021F
:1000A00004081020060111241FBECFEFD8E0DEBFE8
:1000B000CDBF21E0A0E0B1E001C01D92A131B207A7
:1000C000E1F710E0C3E5D0E004C02197FE010E94F3
:1000D0005101C235D107C9F70E94BC000C945701E9
:1000E0000C9400001F920F920FB60F9211242F93C1
:1000F0003F938F939F93AF93BF9380910D01909106
:100100000E01A0910F01B091100130910C0123E07C
:10011000230F2D3758F50196A11DB11D20930C0119
:1001200080930D0190930E01A0930F01B0931001E5
:100130008091080190910901A0910A01B0910B01F1
:100140000196A11DB11D8093080190930901A09310
:100150000A01B0930B01BF91AF919F918F913F9195
:100160002F910F900FBE0F901F90189526E8230F28
:100170000296A11DB11DD2CF789484B5826084BD52
:1001800084B5816084BD85B5826085BD85B581609B
:1001900085BD80916E00816080936E001092810019
:1001A00080918100826080938100809181008160D4
:1001B0008093810080918000816080938000809195
:1001C000B10084608093B1008091B0008160809321
:1001D000B00080917A00846080937A0080917A00E8
:1001E000826080937A0080917A00816080937A00A7
:1001F00080917A00806880937A001092C100C0E0FC
:10020000D0E02097F1F30E940000FBCFCF93DF9363
:1002100089E08093000188E080930101E9E9F0E042
:100220002491E5E8F0E084918823C1F090E0880F04
:10023000991FFC01EE58FF4FC591D491FC01E8597C
:10024000FF4FA591B4919FB7F8948881E22FE09574
:100250008E2388838C91E823EC939FBF80910101CA
:1002600090E0FC01E057FF4F249184589F4FFC0120
:100270008491882399F090E0880F991FFC01EE5833
:10028000FF4FA591B491FC01E859FF4F85919491DE
:100290008FB7F894EC91E22BEC938FBFDF91CF9165
:1002A0000895EE0FFF1F0590F491E02D0994F89446
:0202B000FFCF7E
:00000001FF
